{
  "_format": "hh-sol-artifact-1",
  "contractName": "Message",
  "sourceName": "contracts/Message.sol",
  "abi": [
    {
      "inputs": [],
      "stateMutability": "nonpayable",
      "type": "constructor"
    },
    {
      "anonymous": false,
      "inputs": [
        {
          "indexed": false,
          "internalType": "address",
          "name": "setter",
          "type": "address"
        },
        {
          "indexed": false,
          "internalType": "string",
          "name": "message",
          "type": "string"
        }
      ],
      "name": "MessageSet",
      "type": "event"
    },
    {
      "anonymous": false,
      "inputs": [
        {
          "indexed": false,
          "internalType": "address",
          "name": "previousOwner",
          "type": "address"
        },
        {
          "indexed": false,
          "internalType": "address",
          "name": "newOwner",
          "type": "address"
        }
      ],
      "name": "OwnershipTransfered",
      "type": "event"
    },
    {
      "inputs": [],
      "name": "getMessage",
      "outputs": [
        {
          "internalType": "string",
          "name": "",
          "type": "string"
        }
      ],
      "stateMutability": "view",
      "type": "function"
    },
    {
      "inputs": [],
      "name": "message",
      "outputs": [
        {
          "internalType": "string",
          "name": "",
          "type": "string"
        }
      ],
      "stateMutability": "view",
      "type": "function"
    },
    {
      "inputs": [],
      "name": "owner",
      "outputs": [
        {
          "internalType": "address",
          "name": "",
          "type": "address"
        }
      ],
      "stateMutability": "view",
      "type": "function"
    },
    {
      "inputs": [
        {
          "internalType": "string",
          "name": "_message",
          "type": "string"
        }
      ],
      "name": "setMessage",
      "outputs": [],
      "stateMutability": "nonpayable",
      "type": "function"
    },
    {
      "inputs": [
        {
          "internalType": "address",
          "name": "_newOwner",
          "type": "address"
        }
      ],
      "name": "transferOwnership",
      "outputs": [],
      "stateMutability": "nonpayable",
      "type": "function"
    }
  ],
  "bytecode": "0x6080604052348015600f57600080fd5b50336000806101000a81548173ffffffffffffffffffffffffffffffffffffffff021916908373ffffffffffffffffffffffffffffffffffffffff160217905550610cc58061005f6000396000f3fe608060405234801561001057600080fd5b50600436106100575760003560e01c8063368b87721461005c5780638da5cb5b14610078578063ce6d41de14610096578063e21f37ce146100b4578063f2fde38b146100d2575b600080fd5b61007660048036038101906100719190610675565b6100ee565b005b6100806101fe565b60405161008d91906106ff565b60405180910390f35b61009e610222565b6040516100ab9190610799565b60405180910390f35b6100bc6102b4565b6040516100c99190610799565b60405180910390f35b6100ec60048036038101906100e791906107e7565b610342565b005b600073ffffffffffffffffffffffffffffffffffffffff163373ffffffffffffffffffffffffffffffffffffffff160361015d576040517f08c379a000000000000000000000000000000000000000000000000000000000815260040161015490610860565b60405180910390fd5b60008054906101000a900473ffffffffffffffffffffffffffffffffffffffff1673ffffffffffffffffffffffffffffffffffffffff163373ffffffffffffffffffffffffffffffffffffffff16146101eb576040517f08c379a00000000000000000000000000000000000000000000000000000000081526004016101e2906108cc565b60405180910390fd5b80600190816101fa9190610b02565b5050565b60008054906101000a900473ffffffffffffffffffffffffffffffffffffffff1681565b6060600180546102319061091b565b80601f016020809104026020016040519081016040528092919081815260200182805461025d9061091b565b80156102aa5780601f1061027f576101008083540402835291602001916102aa565b820191906000526020600020905b81548152906001019060200180831161028d57829003601f168201915b5050505050905090565b600180546102c19061091b565b80601f01602080910402602001604051908101604052809291908181526020018280546102ed9061091b565b801561033a5780601f1061030f5761010080835404028352916020019161033a565b820191906000526020600020905b81548152906001019060200180831161031d57829003601f168201915b505050505081565b60008054906101000a900473ffffffffffffffffffffffffffffffffffffffff1673ffffffffffffffffffffffffffffffffffffffff163373ffffffffffffffffffffffffffffffffffffffff16146103d0576040517f08c379a00000000000000000000000000000000000000000000000000000000081526004016103c7906108cc565b60405180910390fd5b600073ffffffffffffffffffffffffffffffffffffffff168173ffffffffffffffffffffffffffffffffffffffff160361043f576040517f08c379a000000000000000000000000000000000000000000000000000000000815260040161043690610c46565b60405180910390fd5b806000806101000a81548173ffffffffffffffffffffffffffffffffffffffff021916908373ffffffffffffffffffffffffffffffffffffffff1602179055507f0d18b5fd22306e373229b9439188228edca81207d1667f604daf6cef8aa3ee6760008054906101000a900473ffffffffffffffffffffffffffffffffffffffff16826040516104d0929190610c66565b60405180910390a1806000806101000a81548173ffffffffffffffffffffffffffffffffffffffff021916908373ffffffffffffffffffffffffffffffffffffffff16021790555050565b6000604051905090565b600080fd5b600080fd5b600080fd5b600080fd5b6000601f19601f8301169050919050565b7f4e487b7100000000000000000000000000000000000000000000000000000000600052604160045260246000fd5b61058282610539565b810181811067ffffffffffffffff821117156105a1576105a061054a565b5b80604052505050565b60006105b461051b565b90506105c08282610579565b919050565b600067ffffffffffffffff8211156105e0576105df61054a565b5b6105e982610539565b9050602081019050919050565b82818337600083830152505050565b6000610618610613846105c5565b6105aa565b90508281526020810184848401111561063457610633610534565b5b61063f8482856105f6565b509392505050565b600082601f83011261065c5761065b61052f565b5b813561066c848260208601610605565b91505092915050565b60006020828403121561068b5761068a610525565b5b600082013567ffffffffffffffff8111156106a9576106a861052a565b5b6106b584828501610647565b91505092915050565b600073ffffffffffffffffffffffffffffffffffffffff82169050919050565b60006106e9826106be565b9050919050565b6106f9816106de565b82525050565b600060208201905061071460008301846106f0565b92915050565b600081519050919050565b600082825260208201905092915050565b60005b83811015610754578082015181840152602081019050610739565b60008484015250505050565b600061076b8261071a565b6107758185610725565b9350610785818560208601610736565b61078e81610539565b840191505092915050565b600060208201905081810360008301526107b38184610760565b905092915050565b6107c4816106de565b81146107cf57600080fd5b50565b6000813590506107e1816107bb565b92915050565b6000602082840312156107fd576107fc610525565b5b600061080b848285016107d2565b91505092915050565b7f596f752063616e27742073657420796f7572206f776e206d6573616167650000600082015250565b600061084a601e83610725565b915061085582610814565b602082019050919050565b600060208201905081810360008301526108798161083d565b9050919050565b7f596f75206172656e277420746865206f776e6572000000000000000000000000600082015250565b60006108b6601483610725565b91506108c182610880565b602082019050919050565b600060208201905081810360008301526108e5816108a9565b9050919050565b7f4e487b7100000000000000000000000000000000000000000000000000000000600052602260045260246000fd5b6000600282049050600182168061093357607f821691505b602082108103610946576109456108ec565b5b50919050565b60008190508160005260206000209050919050565b60006020601f8301049050919050565b600082821b905092915050565b6000600883026109ae7fffffffffffffffffffffffffffffffffffffffffffffffffffffffffffffffff82610971565b6109b88683610971565b95508019841693508086168417925050509392505050565b6000819050919050565b6000819050919050565b60006109ff6109fa6109f5846109d0565b6109da565b6109d0565b9050919050565b6000819050919050565b610a19836109e4565b610a2d610a2582610a06565b84845461097e565b825550505050565b600090565b610a42610a35565b610a4d818484610a10565b505050565b5b81811015610a7157610a66600082610a3a565b600181019050610a53565b5050565b601f821115610ab657610a878161094c565b610a9084610961565b81016020851015610a9f578190505b610ab3610aab85610961565b830182610a52565b50505b505050565b600082821c905092915050565b6000610ad960001984600802610abb565b1980831691505092915050565b6000610af28383610ac8565b9150826002028217905092915050565b610b0b8261071a565b67ffffffffffffffff811115610b2457610b2361054a565b5b610b2e825461091b565b610b39828285610a75565b600060209050601f831160018114610b6c5760008415610b5a578287015190505b610b648582610ae6565b865550610bcc565b601f198416610b7a8661094c565b60005b82811015610ba257848901518255600182019150602085019450602081019050610b7d565b86831015610bbf5784890151610bbb601f891682610ac8565b8355505b6001600288020188555050505b505050505050565b7f596f752063616e2774207472616e73666572206f776e65727368697020746f2060008201527f746865207a65726f206164647265737300000000000000000000000000000000602082015250565b6000610c30603083610725565b9150610c3b82610bd4565b604082019050919050565b60006020820190508181036000830152610c5f81610c23565b9050919050565b6000604082019050610c7b60008301856106f0565b610c8860208301846106f0565b939250505056fea26469706673582212208a6371c7007a54b52ef207c2fd4e3bddad8b1f173a43121249e94693239d418964736f6c634300081b0033",
  "linkReferences": {},
  "deployedLinkReferences": {}
}